{
  "contractName": "Balance",
  "abi": [
    {
      "constant": true,
      "inputs": [
        {
          "name": "",
          "type": "address"
        }
      ],
      "name": "hourBalance",
      "outputs": [
        {
          "name": "addr",
          "type": "address"
        },
        {
          "name": "amount",
          "type": "uint256"
        },
        {
          "name": "init",
          "type": "bool"
        }
      ],
      "payable": false,
      "stateMutability": "view",
      "type": "function",
      "signature": "0x1e21f34c"
    },
    {
      "constant": true,
      "inputs": [
        {
          "name": "",
          "type": "uint256"
        }
      ],
      "name": "userAccounts",
      "outputs": [
        {
          "name": "",
          "type": "address"
        }
      ],
      "payable": false,
      "stateMutability": "view",
      "type": "function",
      "signature": "0x616d5058"
    },
    {
      "constant": false,
      "inputs": [
        {
          "name": "_address",
          "type": "address"
        },
        {
          "name": "_amount",
          "type": "uint256"
        }
      ],
      "name": "initialize",
      "outputs": [],
      "payable": false,
      "stateMutability": "nonpayable",
      "type": "function",
      "signature": "0xcd6dc687"
    },
    {
      "constant": false,
      "inputs": [
        {
          "name": "_hours",
          "type": "uint256"
        },
        {
          "name": "_worker",
          "type": "address"
        }
      ],
      "name": "changeBalance",
      "outputs": [],
      "payable": false,
      "stateMutability": "nonpayable",
      "type": "function",
      "signature": "0x571594dd"
    }
  ],
  "bytecode": "0x608060405234801561001057600080fd5b506105b8806100206000396000f3fe608060405260043610610062576000357c0100000000000000000000000000000000000000000000000000000000900463ffffffff1680631e21f34c14610067578063571594dd1461010a578063616d505814610165578063cd6dc687146101e0575b600080fd5b34801561007357600080fd5b506100b66004803603602081101561008a57600080fd5b81019080803573ffffffffffffffffffffffffffffffffffffffff16906020019092919050505061023b565b604051808473ffffffffffffffffffffffffffffffffffffffff1673ffffffffffffffffffffffffffffffffffffffff16815260200183815260200182151515158152602001935050505060405180910390f35b34801561011657600080fd5b506101636004803603604081101561012d57600080fd5b8101908080359060200190929190803573ffffffffffffffffffffffffffffffffffffffff169060200190929190505050610292565b005b34801561017157600080fd5b5061019e6004803603602081101561018857600080fd5b81019080803590602001909291905050506103fc565b604051808273ffffffffffffffffffffffffffffffffffffffff1673ffffffffffffffffffffffffffffffffffffffff16815260200191505060405180910390f35b3480156101ec57600080fd5b506102396004803603604081101561020357600080fd5b81019080803573ffffffffffffffffffffffffffffffffffffffff1690602001909291908035906020019092919050505061043a565b005b60016020528060005260406000206000915090508060000160009054906101000a900473ffffffffffffffffffffffffffffffffffffffff16908060010154908060020160009054906101000a900460ff16905083565b81600160003373ffffffffffffffffffffffffffffffffffffffff1673ffffffffffffffffffffffffffffffffffffffff168152602001908152602001600020600101541115156102e257600080fd5b81600160003373ffffffffffffffffffffffffffffffffffffffff1673ffffffffffffffffffffffffffffffffffffffff1681526020019081526020016000206001015403600160003373ffffffffffffffffffffffffffffffffffffffff1673ffffffffffffffffffffffffffffffffffffffff1681526020019081526020016000206001018190555081600160008373ffffffffffffffffffffffffffffffffffffffff1673ffffffffffffffffffffffffffffffffffffffff1681526020019081526020016000206001015401600160008373ffffffffffffffffffffffffffffffffffffffff1673ffffffffffffffffffffffffffffffffffffffff168152602001908152602001600020600101819055505050565b60008181548110151561040b57fe5b906000526020600020016000915054906101000a900473ffffffffffffffffffffffffffffffffffffffff1681565b6060604051908101604052808373ffffffffffffffffffffffffffffffffffffffff16815260200182815260200160011515815250600160008473ffffffffffffffffffffffffffffffffffffffff1673ffffffffffffffffffffffffffffffffffffffff16815260200190815260200160002060008201518160000160006101000a81548173ffffffffffffffffffffffffffffffffffffffff021916908373ffffffffffffffffffffffffffffffffffffffff1602179055506020820151816001015560408201518160020160006101000a81548160ff02191690831515021790555090505060008290806001815401808255809150509060018203906000526020600020016000909192909190916101000a81548173ffffffffffffffffffffffffffffffffffffffff021916908373ffffffffffffffffffffffffffffffffffffffff16021790555050505056fea165627a7a7230582046549e919416732a27cd4349caa8b8857e62dc8820f06900249dcbc7a62287aa0029",
  "source": "pragma solidity ^0.5.0;\n\ncontract Balance {\n  struct HourBalance {\n      address addr;\n      uint amount;\n      bool init;\n  }\n  address[] public userAccounts;\n  mapping (address => HourBalance) public hourBalance;\n  function initialize (address _address, uint _amount) public{\n     hourBalance[_address] = HourBalance(_address, _amount, true);\n     userAccounts.push(_address);\n  }\n  function changeBalance(uint _hours, address _worker) public {\n    require (hourBalance[msg.sender].amount > _hours); \n    hourBalance[msg.sender].amount = hourBalance[msg.sender].amount - _hours;\n    hourBalance[_worker].amount = hourBalance[_worker].amount + _hours;\n  }        \n}\n",
  "sourcePath": "/home/maclin/Documents/time_bank_new/contracts/Balance.sol",
  "compiler": {
    "name": "solc",
    "version": "0.5.0+commit.1d4f565a.Emscripten.clang"
  },
  "schemaVersion": "3.0.1",
  "updatedAt": "2019-03-24T21:52:55.392Z",
  "devdoc": {
    "methods": {}
  },
  "userdoc": {
    "methods": {}
  }
}