{
  "contractName": "TimeBank",
  "abi": [
    {
      "constant": true,
      "inputs": [
        {
          "name": "",
          "type": "address"
        }
      ],
      "name": "service",
      "outputs": [
        {
          "name": "id",
          "type": "uint256"
        },
        {
          "name": "service",
          "type": "string"
        },
        {
          "name": "complete",
          "type": "bool"
        },
        {
          "name": "balance",
          "type": "uint256"
        }
      ],
      "payable": false,
      "stateMutability": "view",
      "type": "function"
    },
    {
      "constant": false,
      "inputs": [
        {
          "name": "_id",
          "type": "uint256"
        },
        {
          "name": "_service",
          "type": "string"
        },
        {
          "name": "_balance",
          "type": "uint256"
        },
        {
          "name": "_account",
          "type": "address"
        }
      ],
      "name": "create",
      "outputs": [],
      "payable": false,
      "stateMutability": "nonpayable",
      "type": "function"
    },
    {
      "constant": false,
      "inputs": [
        {
          "name": "_hours",
          "type": "uint256"
        },
        {
          "name": "_worker",
          "type": "address"
        }
      ],
      "name": "changeBalance",
      "outputs": [],
      "payable": false,
      "stateMutability": "nonpayable",
      "type": "function"
    }
  ],
  "bytecode": "0x608060405234801561001057600080fd5b5061065e806100206000396000f3fe608060405260043610610057576000357c0100000000000000000000000000000000000000000000000000000000900463ffffffff16806341c85efd1461005c5780634bd8470114610158578063571594dd1461023b575b600080fd5b34801561006857600080fd5b506101566004803603608081101561007f57600080fd5b8101908080359060200190929190803590602001906401000000008111156100a657600080fd5b8201836020820111156100b857600080fd5b803590602001918460018302840111640100000000831117156100da57600080fd5b91908080601f016020809104026020016040519081016040528093929190818152602001838380828437600081840152601f19601f82011690508083019250505050505050919291929080359060200190929190803573ffffffffffffffffffffffffffffffffffffffff169060200190929190505050610296565b005b34801561016457600080fd5b506101a76004803603602081101561017b57600080fd5b81019080803573ffffffffffffffffffffffffffffffffffffffff169060200190929190505050610353565b604051808581526020018060200184151515158152602001838152602001828103825285818151815260200191508051906020019080838360005b838110156101fd5780820151818401526020810190506101e2565b50505050905090810190601f16801561022a5780820380516001836020036101000a031916815260200191505b509550505050505060405180910390f35b34801561024757600080fd5b506102946004803603604081101561025e57600080fd5b8101908080359060200190929190803573ffffffffffffffffffffffffffffffffffffffff169060200190929190505050610428565b005b608060405190810160405280858152602001848152602001600015158152602001838152506000808373ffffffffffffffffffffffffffffffffffffffff1673ffffffffffffffffffffffffffffffffffffffff16815260200190815260200160002060008201518160000155602082015181600101908051906020019061031f92919061058d565b5060408201518160020160006101000a81548160ff0219169083151502179055506060820151816003015590505050505050565b6000602052806000526040600020600091509050806000015490806001018054600181600116156101000203166002900480601f0160208091040260200160405190810160405280929190818152602001828054600181600116156101000203166002900480156104055780601f106103da57610100808354040283529160200191610405565b820191906000526020600020905b8154815290600101906020018083116103e857829003601f168201915b5050505050908060020160009054906101000a900460ff16908060030154905084565b816000803373ffffffffffffffffffffffffffffffffffffffff1673ffffffffffffffffffffffffffffffffffffffff1681526020019081526020016000206003015411151561047757600080fd5b816000803373ffffffffffffffffffffffffffffffffffffffff1673ffffffffffffffffffffffffffffffffffffffff16815260200190815260200160002060030154036000803373ffffffffffffffffffffffffffffffffffffffff1673ffffffffffffffffffffffffffffffffffffffff16815260200190815260200160002060030181905550816000808373ffffffffffffffffffffffffffffffffffffffff1673ffffffffffffffffffffffffffffffffffffffff16815260200190815260200160002060030154016000808373ffffffffffffffffffffffffffffffffffffffff1673ffffffffffffffffffffffffffffffffffffffff168152602001908152602001600020600301819055505050565b828054600181600116156101000203166002900490600052602060002090601f016020900481019282601f106105ce57805160ff19168380011785556105fc565b828001600101855582156105fc579182015b828111156105fb5782518255916020019190600101906105e0565b5b509050610609919061060d565b5090565b61062f91905b8082111561062b576000816000905550600101610613565b5090565b9056fea165627a7a72305820b408785330e590d07023c22b23dd10dc2d5fc1985a8593cb3523102bcbce3f490029",
  "source": "pragma solidity ^0.5.0;\n\n/**\n * The TimeBank contract does this and that...\n */\ncontract TimeBank {\n\tstruct Service {\n\t\tuint id;\n\t\tstring service;\n\t\tbool complete;\n\t\tuint balance;\t\n\t}\n\n\tmapping (address => Service) public service;\n\tfunction create (uint _id, string memory _service, uint _balance, address _account) public {\n\t\tservice[_account] = Service(_id, _service, false, _balance);\n\t}\n\n\tfunction changeBalance(uint _hours, address _worker) public {\n\t\trequire (service[msg.sender].balance > _hours);\t\n\t\tservice[msg.sender].balance = service[msg.sender].balance - _hours;\n\t\tservice[_worker].balance = service[_worker].balance + _hours;\n\t}\n}\n\n",
  "sourcePath": "/home/maclin/Documents/time_bank_new/contracts/TimeBank.sol",
  "compiler": {
    "name": "solc",
    "version": "0.5.0+commit.1d4f565a.Emscripten.clang"
  },
  "schemaVersion": "3.0.1",
  "updatedAt": "2019-02-20T01:38:43.183Z",
  "devdoc": {
    "methods": {}
  },
  "userdoc": {
    "methods": {},
    "notice": "The TimeBank contract does this and that..."
  }
}