{
  "contractName": "TimeBank",
  "abi": [
    {
      "constant": true,
      "inputs": [
        {
          "name": "",
          "type": "address"
        }
      ],
      "name": "service",
      "outputs": [
        {
          "name": "service",
          "type": "string"
        },
        {
          "name": "complete",
          "type": "bool"
        },
        {
          "name": "hour",
          "type": "uint256"
        }
      ],
      "payable": false,
      "stateMutability": "view",
      "type": "function",
      "signature": "0x4bd84701"
    },
    {
      "constant": false,
      "inputs": [
        {
          "name": "_service",
          "type": "string"
        },
        {
          "name": "_account",
          "type": "address"
        },
        {
          "name": "_hour",
          "type": "uint256"
        }
      ],
      "name": "create",
      "outputs": [],
      "payable": false,
      "stateMutability": "nonpayable",
      "type": "function",
      "signature": "0xb5917336"
    }
  ],
  "bytecode": "0x608060405234801561001057600080fd5b5061046b806100206000396000f3fe60806040526004361061004c576000357c0100000000000000000000000000000000000000000000000000000000900463ffffffff1680634bd8470114610051578063b59173361461012d575b600080fd5b34801561005d57600080fd5b506100a06004803603602081101561007457600080fd5b81019080803573ffffffffffffffffffffffffffffffffffffffff16906020019092919050505061021f565b604051808060200184151515158152602001838152602001828103825285818151815260200191508051906020019080838360005b838110156100f05780820151818401526020810190506100d5565b50505050905090810190601f16801561011d5780820380516001836020036101000a031916815260200191505b5094505050505060405180910390f35b34801561013957600080fd5b5061021d6004803603606081101561015057600080fd5b810190808035906020019064010000000081111561016d57600080fd5b82018360208201111561017f57600080fd5b803590602001918460018302840111640100000000831117156101a157600080fd5b91908080601f016020809104026020016040519081016040528093929190818152602001838380828437600081840152601f19601f820116905080830192505050505050509192919290803573ffffffffffffffffffffffffffffffffffffffff169060200190929190803590602001909291905050506102ee565b005b6000602052806000526040600020600091509050806000018054600181600116156101000203166002900480601f0160208091040260200160405190810160405280929190818152602001828054600181600116156101000203166002900480156102cb5780601f106102a0576101008083540402835291602001916102cb565b820191906000526020600020905b8154815290600101906020018083116102ae57829003601f168201915b5050505050908060010160009054906101000a900460ff16908060020154905083565b606060405190810160405280848152602001600015158152602001828152506000808473ffffffffffffffffffffffffffffffffffffffff1673ffffffffffffffffffffffffffffffffffffffff168152602001908152602001600020600082015181600001908051906020019061036792919061039a565b5060208201518160010160006101000a81548160ff02191690831515021790555060408201518160020155905050505050565b828054600181600116156101000203166002900490600052602060002090601f016020900481019282601f106103db57805160ff1916838001178555610409565b82800160010185558215610409579182015b828111156104085782518255916020019190600101906103ed565b5b509050610416919061041a565b5090565b61043c91905b80821115610438576000816000905550600101610420565b5090565b9056fea165627a7a723058203fa502a692032235f95b8c9defa2ec7eae0f32a8dbe5232d720805f83f3d61f70029",
  "source": "pragma solidity ^0.5.0;\ncontract TimeBank {\n\tstruct Service {\n\t\tstring service;\n\t\tbool complete;\n\t\tuint hour;\n\t}\n \t\n\tmapping (address => Service) public service;\n\tfunction create ( string memory _service, address _account, uint _hour) public {\n\t\tservice[_account] = Service( _service, false, _hour);\n\t}\n}\n\n\n",
  "sourcePath": "/home/maclin/Documents/time_bank_new/contracts/TimeBank.sol",
  "compiler": {
    "name": "solc",
    "version": "0.5.0+commit.1d4f565a.Emscripten.clang"
  },
  "schemaVersion": "3.0.1",
  "updatedAt": "2019-03-27T05:23:22.640Z",
  "devdoc": {
    "methods": {}
  },
  "userdoc": {
    "methods": {}
  }
}